{
  "contractName": "Faucet",
  "abi": [
    {
      "inputs": [
        {
          "internalType": "address",
          "name": "",
          "type": "address"
        }
      ],
      "name": "funders",
      "outputs": [
        {
          "internalType": "bool",
          "name": "",
          "type": "bool"
        }
      ],
      "stateMutability": "view",
      "type": "function",
      "constant": true
    },
    {
      "inputs": [
        {
          "internalType": "uint256",
          "name": "",
          "type": "uint256"
        }
      ],
      "name": "fundersList",
      "outputs": [
        {
          "internalType": "address",
          "name": "",
          "type": "address"
        }
      ],
      "stateMutability": "view",
      "type": "function",
      "constant": true
    },
    {
      "inputs": [],
      "name": "numberOfFunders",
      "outputs": [
        {
          "internalType": "uint256",
          "name": "",
          "type": "uint256"
        }
      ],
      "stateMutability": "view",
      "type": "function",
      "constant": true
    },
    {
      "inputs": [],
      "name": "owner",
      "outputs": [
        {
          "internalType": "address",
          "name": "",
          "type": "address"
        }
      ],
      "stateMutability": "view",
      "type": "function",
      "constant": true
    },
    {
      "inputs": [],
      "name": "test3",
      "outputs": [
        {
          "internalType": "uint256",
          "name": "",
          "type": "uint256"
        }
      ],
      "stateMutability": "pure",
      "type": "function",
      "constant": true
    },
    {
      "inputs": [],
      "name": "testNum",
      "outputs": [
        {
          "internalType": "uint256",
          "name": "",
          "type": "uint256"
        }
      ],
      "stateMutability": "view",
      "type": "function",
      "constant": true
    },
    {
      "stateMutability": "payable",
      "type": "receive",
      "payable": true
    },
    {
      "inputs": [],
      "name": "addFunds",
      "outputs": [],
      "stateMutability": "payable",
      "type": "function",
      "payable": true
    },
    {
      "inputs": [
        {
          "internalType": "uint256",
          "name": "index",
          "type": "uint256"
        }
      ],
      "name": "getFunders",
      "outputs": [
        {
          "internalType": "address",
          "name": "",
          "type": "address"
        }
      ],
      "stateMutability": "view",
      "type": "function",
      "constant": true
    },
    {
      "inputs": [],
      "name": "getAllFunders",
      "outputs": [
        {
          "internalType": "address[]",
          "name": "",
          "type": "address[]"
        }
      ],
      "stateMutability": "view",
      "type": "function",
      "constant": true
    },
    {
      "inputs": [
        {
          "internalType": "uint256",
          "name": "amount",
          "type": "uint256"
        }
      ],
      "name": "withdrawFunds",
      "outputs": [],
      "stateMutability": "nonpayable",
      "type": "function"
    },
    {
      "inputs": [
        {
          "internalType": "address",
          "name": "newOwner",
          "type": "address"
        }
      ],
      "name": "transferOwnerShip",
      "outputs": [],
      "stateMutability": "nonpayable",
      "type": "function"
    },
    {
      "inputs": [],
      "name": "emitLog",
      "outputs": [
        {
          "internalType": "bytes32",
          "name": "",
          "type": "bytes32"
        }
      ],
      "stateMutability": "pure",
      "type": "function",
      "constant": true
    }
  ],
  "bytecode": "0x608060405234801561001057600080fd5b50336000806101000a81548173ffffffffffffffffffffffffffffffffffffffff021916908373ffffffffffffffffffffffffffffffffffffffff1602179055506103e8600181905550610c11806100696000396000f3fe6080604052600436106100ab5760003560e01c80638863dd1a116100645780638863dd1a146101ed5780638da5cb5b14610216578063a26759cb14610241578063ae28f1ed1461024b578063dc79a7fc14610276578063f42c13bf146102a1576100b2565b8063031b3677146100b75780630a8e8e01146100f4578063155dd5ee1461011f5780633a7b6c741461014857806347ff62c6146101855780636fbbb55d146101c2576100b2565b366100b257005b600080fd5b3480156100c357600080fd5b506100de60048036038101906100d991906107a2565b6102cc565b6040516100eb91906107ea565b60405180910390f35b34801561010057600080fd5b506101096102ec565b604051610116919061081e565b60405180910390f35b34801561012b57600080fd5b5061014660048036038101906101419190610865565b6102f5565b005b34801561015457600080fd5b5061016f600480360381019061016a9190610865565b61038c565b60405161017c91906108a1565b60405180910390f35b34801561019157600080fd5b506101ac60048036038101906101a79190610865565b6103c9565b6040516101b991906108a1565b60405180910390f35b3480156101ce57600080fd5b506101d76103fc565b6040516101e4919061097a565b60405180910390f35b3480156101f957600080fd5b50610214600480360381019061020f91906107a2565b6104f6565b005b34801561022257600080fd5b5061022b6105c7565b60405161023891906108a1565b60405180910390f35b6102496105eb565b005b34801561025757600080fd5b5061026061070b565b60405161026d919061081e565b60405180910390f35b34801561028257600080fd5b5061028b610711565b604051610298919061081e565b60405180910390f35b3480156102ad57600080fd5b506102b6610717565b6040516102c391906109b5565b60405180910390f35b60046020528060005260406000206000915054906101000a900460ff1681565b60006064905090565b8067016345785d8a0000811115610341576040517f08c379a000000000000000000000000000000000000000000000000000000000815260040161033890610a53565b60405180910390fd5b3373ffffffffffffffffffffffffffffffffffffffff166108fc839081150290604051600060405180830381858888f19350505050158015610387573d6000803e3d6000fd5b505050565b60006003600083815260200190815260200160002060009054906101000a900473ffffffffffffffffffffffffffffffffffffffff169050919050565b60036020528060005260406000206000915054906101000a900473ffffffffffffffffffffffffffffffffffffffff1681565b6060600060025467ffffffffffffffff81111561041c5761041b610a73565b5b60405190808252806020026020018201604052801561044a5781602001602082028036833780820191505090505b50905060005b6002548110156104ee576003600082815260200190815260200160002060009054906101000a900473ffffffffffffffffffffffffffffffffffffffff168282815181106104a1576104a0610aa2565b5b602002602001019073ffffffffffffffffffffffffffffffffffffffff16908173ffffffffffffffffffffffffffffffffffffffff168152505080806104e690610b00565b915050610450565b508091505090565b60008054906101000a900473ffffffffffffffffffffffffffffffffffffffff1673ffffffffffffffffffffffffffffffffffffffff163373ffffffffffffffffffffffffffffffffffffffff1614610584576040517f08c379a000000000000000000000000000000000000000000000000000000000815260040161057b90610bbb565b60405180910390fd5b806000806101000a81548173ffffffffffffffffffffffffffffffffffffffff021916908373ffffffffffffffffffffffffffffffffffffffff16021790555050565b60008054906101000a900473ffffffffffffffffffffffffffffffffffffffff1681565b6000339050600460008273ffffffffffffffffffffffffffffffffffffffff1673ffffffffffffffffffffffffffffffffffffffff16815260200190815260200160002060009054906101000a900460ff166107085760006002600081548092919061065690610b00565b9190505590506001600460008473ffffffffffffffffffffffffffffffffffffffff1673ffffffffffffffffffffffffffffffffffffffff16815260200190815260200160002060006101000a81548160ff021916908315150217905550336003600083815260200190815260200160002060006101000a81548173ffffffffffffffffffffffffffffffffffffffff021916908373ffffffffffffffffffffffffffffffffffffffff160217905550505b50565b60015481565b60025481565b60007f48656c6c6f20576f726c64000000000000000000000000000000000000000000905090565b600080fd5b600073ffffffffffffffffffffffffffffffffffffffff82169050919050565b600061076f82610744565b9050919050565b61077f81610764565b811461078a57600080fd5b50565b60008135905061079c81610776565b92915050565b6000602082840312156107b8576107b761073f565b5b60006107c68482850161078d565b91505092915050565b60008115159050919050565b6107e4816107cf565b82525050565b60006020820190506107ff60008301846107db565b92915050565b6000819050919050565b61081881610805565b82525050565b6000602082019050610833600083018461080f565b92915050565b61084281610805565b811461084d57600080fd5b50565b60008135905061085f81610839565b92915050565b60006020828403121561087b5761087a61073f565b5b600061088984828501610850565b91505092915050565b61089b81610764565b82525050565b60006020820190506108b66000830184610892565b92915050565b600081519050919050565b600082825260208201905092915050565b6000819050602082019050919050565b6108f181610764565b82525050565b600061090383836108e8565b60208301905092915050565b6000602082019050919050565b6000610927826108bc565b61093181856108c7565b935061093c836108d8565b8060005b8381101561096d57815161095488826108f7565b975061095f8361090f565b925050600181019050610940565b5085935050505092915050565b60006020820190508181036000830152610994818461091c565b905092915050565b6000819050919050565b6109af8161099c565b82525050565b60006020820190506109ca60008301846109a6565b92915050565b600082825260208201905092915050565b7f596f752063616e206f6e6c7920776974686472617720616d6f756e7473206c6560008201527f7373207468617420302e31206574686572000000000000000000000000000000602082015250565b6000610a3d6031836109d0565b9150610a48826109e1565b604082019050919050565b60006020820190508181036000830152610a6c81610a30565b9050919050565b7f4e487b7100000000000000000000000000000000000000000000000000000000600052604160045260246000fd5b7f4e487b7100000000000000000000000000000000000000000000000000000000600052603260045260246000fd5b7f4e487b7100000000000000000000000000000000000000000000000000000000600052601160045260246000fd5b6000610b0b82610805565b91507fffffffffffffffffffffffffffffffffffffffffffffffffffffffffffffffff821415610b3e57610b3d610ad1565b5b600182019050919050565b7f596f7520646f206e6f7420686176652070726976616c6167657320666f72207460008201527f6869732066756e6374696f6e0000000000000000000000000000000000000000602082015250565b6000610ba5602c836109d0565b9150610bb082610b49565b604082019050919050565b60006020820190508181036000830152610bd481610b98565b905091905056fea2646970667358221220b9f98b5086c62947652b12e06ad7f7a31115a5b50e0eb88effdf259e959fe43464736f6c634300080b0033",
  "immutableReferences": {},
  "source": "// SPDX-License-Identifier: MIT\r\npragma solidity >=0.4.22 <0.9.0;\r\n\r\nimport \"./Owned.sol\";\r\nimport \"./Logger.sol\";\r\nimport \"./IFaucet.sol\";\r\n\r\ncontract Faucet is Owned, Logger, IFaucet{\r\n    //storage variables\r\n\r\n    // address payable [] public funders;\r\n    uint public numberOfFunders;\r\n    mapping(uint => address) public fundersList;\r\n    mapping(address => bool) public funders;\r\n    \r\n\r\n    receive() external payable{\r\n    }\r\n\r\n    function addFunds() public payable override {\r\n        \r\n        address funder = msg.sender;\r\n        if (!funders[funder]){\r\n            uint index = numberOfFunders++;\r\n            // numberOfFunders++;\r\n            funders[funder] = true;\r\n            fundersList[index] = msg.sender;\r\n\r\n\r\n        }\r\n        // funders.push(payable(msg.sender));\r\n    }\r\n\r\n    modifier LessThanMaximum(uint amount){\r\n        require(amount <= 0.1 ether, \"You can only withdraw amounts less that 0.1 ether\");\r\n        _;\r\n    }\r\n\r\n    \r\n    function getFunders(uint index) public view returns(address){\r\n        return fundersList[index];\r\n    }\r\n\r\n    function getAllFunders() public view returns(address[] memory){\r\n        address[] memory _funders = new address[](numberOfFunders);\r\n        for(uint i=0; i<numberOfFunders; i++){\r\n            _funders[i] = fundersList[i];\r\n        }\r\n        return _funders;\r\n    }\r\n\r\n    function withdrawFunds(uint amount) public override LessThanMaximum(amount) {\r\n        \r\n        payable(msg.sender).transfer(amount);\r\n    }\r\n\r\n    function transferOwnerShip(address newOwner) public OnlyAdmin{\r\n        owner = newOwner;\r\n    }\r\n\r\n    function emitLog() public override pure returns(bytes32){\r\n        return \"Hello World\";\r\n    }\r\n\r\n    \r\n\r\n} \r\n\r\n// const instance = await Faucet.deployed()\r\n//instance.functioncall.\r\n//instance.withdrawFunds(\"100000000000000000\", {from: accounts[2]})\r\n//instance.addFunds({value:\"2000000000000000000\", from: accounts[2]})\r\n// instance.getFunders(0)\r\n//instance.getAllFunders()",
  "sourcePath": "C:\\Users\\franc\\Documents\\ethereumProjects\\faucet\\contracts\\FaucetContract.sol",
  "compiler": {
    "name": "solc",
    "version": "0.8.11+commit.d7f03943.Emscripten.clang"
  },
  "schemaVersion": "3.4.4",
  "updatedAt": "2022-01-15T05:43:31.810Z",
  "networkType": "ethereum",
  "devdoc": {
    "kind": "dev",
    "methods": {},
    "version": 1
  },
  "userdoc": {
    "kind": "user",
    "methods": {},
    "version": 1
  }
}